{
  "contractName": "PrismSale",
  "abi": [
    {
      "inputs": [],
      "stateMutability": "nonpayable",
      "type": "constructor"
    },
    {
      "inputs": [],
      "name": "charity",
      "outputs": [
        {
          "internalType": "address",
          "name": "",
          "type": "address"
        }
      ],
      "stateMutability": "view",
      "type": "function",
      "constant": true
    },
    {
      "inputs": [],
      "name": "maxSales",
      "outputs": [
        {
          "internalType": "uint256",
          "name": "",
          "type": "uint256"
        }
      ],
      "stateMutability": "view",
      "type": "function",
      "constant": true
    },
    {
      "inputs": [],
      "name": "owner",
      "outputs": [
        {
          "internalType": "address",
          "name": "",
          "type": "address"
        }
      ],
      "stateMutability": "view",
      "type": "function",
      "constant": true
    },
    {
      "inputs": [],
      "name": "totalSales",
      "outputs": [
        {
          "internalType": "uint256",
          "name": "",
          "type": "uint256"
        }
      ],
      "stateMutability": "view",
      "type": "function",
      "constant": true
    },
    {
      "inputs": [],
      "name": "canBuy",
      "outputs": [
        {
          "internalType": "bool",
          "name": "",
          "type": "bool"
        }
      ],
      "stateMutability": "view",
      "type": "function",
      "constant": true
    },
    {
      "inputs": [],
      "name": "hasAccess",
      "outputs": [
        {
          "internalType": "bool",
          "name": "",
          "type": "bool"
        }
      ],
      "stateMutability": "view",
      "type": "function",
      "constant": true
    },
    {
      "inputs": [],
      "name": "buy",
      "outputs": [
        {
          "internalType": "bool",
          "name": "",
          "type": "bool"
        }
      ],
      "stateMutability": "payable",
      "type": "function",
      "payable": true
    }
  ],
  "bytecode": "0x608060405234801561001057600080fd5b50600080819055506064600181905550732befe08d9143c6b39c71cd98a546afce8c0868e5600260006101000a81548173ffffffffffffffffffffffffffffffffffffffff021916908373ffffffffffffffffffffffffffffffffffffffff160217905550730abf11af8ded7019206bc46e3b4a5569103d0a15600360006101000a81548173ffffffffffffffffffffffffffffffffffffffff021916908373ffffffffffffffffffffffffffffffffffffffff160217905550610862806100d96000396000f3fe6080604052600436106100705760003560e01c8063934aa0231161004e578063934aa023146100f6578063a6f2ae3a14610121578063bfdf9b6e1461013f578063ff65226c1461016a57610070565b80636605ff661461007557806385a2dd15146100a05780638da5cb5b146100cb575b600080fd5b34801561008157600080fd5b5061008a610195565b60405161009791906104c5565b60405180910390f35b3480156100ac57600080fd5b506100b561019b565b6040516100c291906104fb565b60405180910390f35b3480156100d757600080fd5b506100e06101ef565b6040516100ed9190610557565b60405180910390f35b34801561010257600080fd5b5061010b610215565b6040516101189190610557565b60405180910390f35b61012961023b565b60405161013691906104fb565b60405180910390f35b34801561014b57600080fd5b50610154610498565b60405161016191906104c5565b60405180910390f35b34801561017657600080fd5b5061017f61049e565b60405161018c91906104fb565b60405180910390f35b60005481565b6000600460003373ffffffffffffffffffffffffffffffffffffffff1673ffffffffffffffffffffffffffffffffffffffff16815260200190815260200160002060009054906101000a900460ff16905090565b600260009054906101000a900473ffffffffffffffffffffffffffffffffffffffff1681565b600360009054906101000a900473ffffffffffffffffffffffffffffffffffffffff1681565b60006001151561024961049e565b15151461028b576040517f08c379a0000000000000000000000000000000000000000000000000000000008152600401610282906105cf565b60405180910390fd5b662386f26fc1000034146102d4576040517f08c379a00000000000000000000000000000000000000000000000000000000081526004016102cb90610661565b60405180910390fd5b600015156102e061019b565b151514610322576040517f08c379a0000000000000000000000000000000000000000000000000000000008152600401610319906106cd565b60405180910390fd5b600260009054906101000a900473ffffffffffffffffffffffffffffffffffffffff1673ffffffffffffffffffffffffffffffffffffffff166108fc606460503461036d919061071c565b61037791906107a5565b9081150290604051600060405180830381858888f193505050501580156103a2573d6000803e3d6000fd5b50600360009054906101000a900473ffffffffffffffffffffffffffffffffffffffff1673ffffffffffffffffffffffffffffffffffffffff166108fc60646014346103ee919061071c565b6103f891906107a5565b9081150290604051600060405180830381858888f19350505050158015610423573d6000803e3d6000fd5b50600160005461043391906107d6565b6000819055506001600460003373ffffffffffffffffffffffffffffffffffffffff1673ffffffffffffffffffffffffffffffffffffffff16815260200190815260200160002060006101000a81548160ff0219169083151502179055506001905090565b60015481565b600060015460005410905090565b6000819050919050565b6104bf816104ac565b82525050565b60006020820190506104da60008301846104b6565b92915050565b60008115159050919050565b6104f5816104e0565b82525050565b600060208201905061051060008301846104ec565b92915050565b600073ffffffffffffffffffffffffffffffffffffffff82169050919050565b600061054182610516565b9050919050565b61055181610536565b82525050565b600060208201905061056c6000830184610548565b92915050565b600082825260208201905092915050565b7f63616e2774206275792074686973000000000000000000000000000000000000600082015250565b60006105b9600e83610572565b91506105c482610583565b602082019050919050565b600060208201905081810360008301526105e8816105ac565b9050919050565b7f796f7520646964206e6f742073656e642074686520636f727265637420616d6d60008201527f6f75740000000000000000000000000000000000000000000000000000000000602082015250565b600061064b602383610572565b9150610656826105ef565b604082019050919050565b6000602082019050818103600083015261067a8161063e565b9050919050565b7f616c726561647920626f75676874000000000000000000000000000000000000600082015250565b60006106b7600e83610572565b91506106c282610681565b602082019050919050565b600060208201905081810360008301526106e6816106aa565b9050919050565b7f4e487b7100000000000000000000000000000000000000000000000000000000600052601160045260246000fd5b6000610727826104ac565b9150610732836104ac565b9250817fffffffffffffffffffffffffffffffffffffffffffffffffffffffffffffffff048311821515161561076b5761076a6106ed565b5b828202905092915050565b7f4e487b7100000000000000000000000000000000000000000000000000000000600052601260045260246000fd5b60006107b0826104ac565b91506107bb836104ac565b9250826107cb576107ca610776565b5b828204905092915050565b60006107e1826104ac565b91506107ec836104ac565b9250827fffffffffffffffffffffffffffffffffffffffffffffffffffffffffffffffff03821115610821576108206106ed565b5b82820190509291505056fea2646970667358221220bf91a4865767ae05aea8c584c0984439fa70754c964e09047284059056c03cfc64736f6c634300080d0033",
  "immutableReferences": {},
  "source": "// SPDX-License-Identifier: MIT\npragma solidity >=0.4.22 <0.9.0;\n\ncontract PrismSale {\n\n  uint public totalSales;\n  uint public maxSales;\n\n  address public owner;\n  address public charity;\n\n  mapping (address => bool) sales;\n\n  constructor() {\n    totalSales = 0;\n    maxSales = 100;\n\n    owner = 0x2bEfe08D9143C6b39C71cD98a546AFce8c0868e5;\n    charity = 0x0Abf11af8DeD7019206BC46E3B4A5569103D0a15;\n\n  }\n\n  function canBuy () public view returns (bool) {\n    return totalSales < maxSales;\n  }\n\n  function hasAccess () public view returns (bool) {\n    return sales[msg.sender];\n  }\n\n  function buy () public payable returns (bool) {\n    require(canBuy() == true, \"can't buy this\");\n    require(msg.value ==  0.01 ether, \"you did not send the correct ammout\");\n    require(hasAccess() == false, \"already bought\");\n\n    payable(owner).transfer(msg.value * 80 / 100);\n    payable(charity).transfer(msg.value * 20 / 100);\n\n    totalSales = totalSales +1;\n\n    sales[msg.sender] = true;\n  \n    return true;\n  }\n}\n",
  "sourcePath": "/Users/Mothership/RubymineProjects/Crypto24/smart_contract/start/contracts/PrismSale.sol",
  "compiler": {
    "name": "solc",
    "version": "0.8.13+commit.abaa5c0e.Emscripten.clang"
  },
  "schemaVersion": "3.4.7",
  "updatedAt": "2022-05-19T10:32:48.646Z",
  "networkType": "ethereum",
  "devdoc": {
    "kind": "dev",
    "methods": {},
    "version": 1
  },
  "userdoc": {
    "kind": "user",
    "methods": {},
    "version": 1
  }
}